:020000040800F2
:10000000180400200501000813070008B3020008C7
:100010000F0700084D010008310C00080000000027
:10002000000000000000000000000000EF080008D1
:10003000510100080000000099070008D9090008D4
:100040001F0100081F0100081F0100081F01000810
:100050001F0100081F0100081F0100081F01000800
:100060001F0100081F0100081F0100081F010008F0
:100070001F0100081F0100081F0100081F010008E0
:100080001F0100081F0100081F0100081F010008D0
:100090001F0100081F0100081F0100081F010008C0
:1000A0001F0100081F0100081F0100081F010008B0
:1000B0003D0A00081F0100081F0100081F01000879
:1000C0001F0100081F0100081F0100081F01000890
:1000D0001F0100081F0100081F0100081F01000880
:1000E0001F0100081F0100081F010008DFF810D0E1
:1000F00000F01AF800480047530C0008AFF30080E6
:10010000180400200648804706480047FEE7FEE73F
:10011000FEE7FEE7FEE7FEE7FEE7FEE7FEE7FEE7B7
:10012000DD090008ED000008064C074D06E0E06818
:1001300040F0010394E8070098471034AC42F6D32E
:10014000FFF7D8FF780C0008980C000800BFFEE706
:10015000704700B5034603E04FF47A7000F005F8ED
:10016000181EA3F10103F7D100BD00EBC001C900C7
:100170004FF0E0225161002191610521116100BF22
:100180004FF0E021096901F480310029F8D0042101
:100190004FF0E022116170472DE9F0410246002541
:1001A0000026002000230024002791F803C00CF053
:1001B0000F0591F803C00CF0100CBCF1000F03D038
:1001C00091F802C04CEA050591F800C0BCF1000F9F
:1001D00031D0146800202BE04FF0010C0CFA00F332
:1001E000B1F800C00CEA03069E4220D183004FF014
:1001F0000F0C0CFA03F7BC4305FA03FC4CEA0404A9
:1002000091F803C0BCF1280F06D14FF0010C0CFA95
:1002100000FCC2F814C00AE091F803C0BCF1480F1A
:1002200005D14FF0010C0CFA00FCC2F810C0401CC4
:100230000828D1D31460B1F800C0BCF1FF0F34DD41
:10024000546800202EE000F1080C4FF0010808FA75
:100250000CF3B1F800C00CEA03069E4221D18300E2
:100260004FF00F0C0CFA03F7BC4305FA03FC4CEA01
:10027000040491F803C0BCF1280F05D100F1080C6B
:1002800008FA0CF8C2F8148091F803C0BCF1480FCA
:1002900007D100F1080C4FF0010808FA0CF8C2F879
:1002A0001080401C0828CED35460BDE8F081416125
:1002B000704700BFFEE7000070B50646144840884E
:1002C000401E83B212480088401E82B200210846B8
:1002D00000F05AF94FF400600E4908604010091F01
:1002E000086000240AE0002503E0304600F0FEF933
:1002F0006D1C07480088A842F7D8641C0448408851
:10030000A042F0D84FF400600249091F086070BD98
:1003100008000020140C014070B504460D46164636
:100320002946204600F026F90248008800F0DEF950
:1003300070BD00000200002008B50121082000F077
:100340003DFA4FF4E050ADF8000003208DF80200B4
:1003500010208DF8030069460A48FFF71DFF0121B0
:10036000042000F02BFA4FF48070ADF80000032059
:100370008DF8020010208DF8030069460248FFF74F
:100380000BFF08BD000C01400008014010B50446F9
:1003900000F024FAFFF7D0FF00F0D8F8F72000F0C3
:1003A00037F9A92000F01CF9512000F019F92C2090
:1003B00000F016F9822000F013F9C02000F028F9AF
:1003C000112000F00DF9092000F00AF9C12000F019
:1003D0001FF9412000F004F9C52000F019F90020B0
:1003E00000F0FEF80A2000F0FBF8802000F0F8F89A
:1003F000B12000F00DF9B02000F0F2F8112000F06B
:10040000EFF8B42000F004F9022000F0E9F8B6207B
:1004100000F0FEF8022000F0E3F8422000F0E0F8DF
:10042000B72000F0F5F8C62000F0DAF8BE2000F0A2
:10043000EFF8002000F0D4F8042000F0D1F8E92013
:1004400000F0E6F8002000F0CBF8362000F0E0F8ED
:10045000682000F0C5F83A2000F0DAF8662000F0D5
:10046000BFF8E02000F0D4F8002000F0B9F8072031
:1004700000F0B6F8102000F0B3F8092000F0B0F852
:10048000172000F0ADF80B2000F0AAF8412000F092
:10049000A7F8892000F0A4F84B2000F0A1F80A206A
:1004A00000F09EF80C2000F09BF80E2000F098F869
:1004B000182000F095F81B2000F092F80F2000F0B3
:1004C0008FF8E12000F0A4F8002000F089F8172050
:1004D00000F086F81A2000F083F8042000F080F87D
:1004E0000E2000F07DF8062000F07AF82F2000F0B2
:1004F00077F8452000F074F8432000F071F80220EE
:1005000000F06EF80A2000F06BF8092000F068F89F
:10051000322000F065F8362000F062F80F2000F07D
:100520005FF8112000F074F87820FFF712FE292000
:1005300000F06EF8032000F093F8012002490860F3
:100540002046FFF7B9FE10BDA001214210B54FF4BF
:100550008050074908606420FFF7FBFD4FF480508E
:100560000349091F08603220FFF7F3FD10BD0000AA
:10057000140C014070B504460D462B462246294610
:10058000204600F001F870BD2DE9F04104460D460B
:1005900016461F461149887A00F03AF8201200F0FA
:1005A0001FF8E0B200F01CF8301200F019F8F0B2B9
:1005B00000F016F80949087B00F02AF8281200F02C
:1005C0000FF8E8B200F00CF8381200F009F8F8B2B1
:1005D00000F006F800F032F8BDE8F08108000020D5
:1005E00010B504464FF40060074908604010091F29
:1005F00008602146054800F069F94FF4006002499F
:10060000091F086010BD0000140C014000380040B4
:1006100010B504464FF400600649086040100860B9
:100620002146054800F052F94FF400600149091FC6
:10063000086010BD140C01400038004010B502499C
:10064000087AFFF7E5FF10BD0800002070B50546E9
:100650000C462846FFF7DCFFE0B2FFF7C1FF70BD94
:1006600010B504462A20204948812B2088812C205F
:10067000088134B1012C10D0022C1AD0032C30D1B7
:1006800023E04FF4A070184908804FF4F0704880C0
:1006900008213620FFF7DAFF24E04FF4F07012490A
:1006A00008804FF4A070488068213620FFF7CEFF05
:1006B00018E04FF4A0700C4908804FF4F0704880A7
:1006C000C8213620FFF7C2FF0CE04FF4F070064956
:1006D00008804FF4A0704880A8213620FFF7B6FFAD
:1006E00000E000BF00BF10BD0800002010B50446A8
:1006F000F82101EA2420FFF773FFFC2101EAE4005E
:10070000FFF76EFFE106080EFFF76AFF10BD00BF9E
:10071000FEE7704770B5002100230F22C47804B3B0
:10072000154C246804F4E064C4F5E064210AC1F1C6
:100730000403CA40447804FA03F184781440214346
:1007400009010E4C0678A155047804F01F05012418
:10075000AC4005786D11AD0005F1E025C5F800410C
:1007600009E0047804F01F050124AC40044D06782C
:10077000761145F8264070BD0CED00E000E400E085
:1007800080E100E002490143024A11607047000025
:100790000000FA050CED00E07047000029B1064AA0
:1007A000D2690243044BDA6104E0034AD26982430E
:1007B000014BDA61704700000010024029B1064A7F
:1007C00092690243044B9A6104E0034A92698243AE
:1007D000014B9A61704700000010024000B587B0DD
:1007E00001210920FFF7EAFF4FF42040ADF8040093
:1007F00003208DF8060018208DF8070001A91C4879
:10080000FFF7CAFC4FF48040ADF8040048208DF893
:10081000070003208DF8060001A91548FFF7BCFC6E
:1008200001218803FFF7BAFF0020ADF808004FF45C
:100830008270ADF80A000020ADF80C00ADF80E0093
:10084000ADF810004FF40070ADF812000020ADF8C4
:100850001400ADF816000720ADF8180002A90548ED
:1008600000F016F80121034800F006F807B000BDBB
:10087000000C01400038004021B1028842F04002E3
:10088000028004E002884FF6BF731A40028070476E
:1008900010B50022028802F441520B884C88234391
:1008A0008C882343CC8823430C8923434C892343DE
:1008B0008C892343CC8923431A430280838B4FF2D4
:1008C000FF74234083830B8A038210BD024600BF5E
:1008D000108900F002000028FAD0918100BF108931
:1008E00000F001000028FAD09089C0B2704770472C
:1008F00010B500F001F810BD0CB50020019000907B
:100900003348006840F480303149086000BF304807
:10091000006800F4003000900198401C019000989D
:1009200018B90198B0F5A06FF1D12948006800F41A
:10093000003010B10120009001E0002000900098EC
:10094000012843D12348006840F010002149086085
:100950000846006820F0030008600846006840F080
:10096000020008601A484068194948600846406813
:1009700048600846406840F4806048600846406827
:1009800020F47C1048600846406840F4E810486055
:100990000846006840F08070086000BF0C4800689E
:1009A00000F000700028F9D00948406820F00300EA
:1009B000074948600846406840F00200486000BFB0
:1009C0000348406800F00C000828F9D10CBD000075
:1009D00000100240002002407047000010B513488C
:1009E000006840F00100114908600846406810495D
:1009F00008400E494860084600680E4908400B4907
:100A000008600846006820F48020086008464068B6
:100A100020F4FE0048604FF41F008860FFF768FF75
:100A20004FF000600449086010BD00000010024053
:100A30000000FFF8FFFFF6FE08ED00E010B5012111
:100A4000880700F029F801280FD10848007808B974
:100A5000012000E00020054908700846007804499C
:100A600008600121880700F008F810BD0000002090
:100A7000B4012242CA4302827047CA4302827047CD
:100A800021B1028842F00102028004E002884FF6A0
:100A9000FE731A400280704730B5024600200023E2
:100AA0000024158A05EA0103958905EA010413B1BA
:100AB0000CB1012000E0002030BD1AB183890B4346
:100AC000838102E083898B438381704701894FF6DC
:100AD000F872114001817047002202881D4B984234
:100AE0000ED01D4B98420BD0B0F1804F08D01B4B5D
:100AF000984205D01A4B984202D01A4B984204D122
:100B00004FF68F731A404B881A43174B984207D001
:100B1000164B984204D04FF6FF431A40CB881A4335
:100B200002808B8883850B8803850A4B98420BD003
:100B3000094B984208D00E4B984205D00D4B984275
:100B400002D00D4B984201D10B7A03860123838298
:100B500070470000002C01400034014000040040B8
:100B600000080040000C004000100040001400404D
:100B700000400140004401400048014000B585B0FC
:100B800001210846FFF70AFE4FF08040FFF79EFF65
:100B90000020ADF80E00ADF80A0042F20F70ADF87B
:100BA0000C0041F61F40ADF8080000208DF8100041
:100BB00002A94FF08040FFF78FFF01218807FFF760
:100BC00059FF012211469007FFF777FF4FF4A0600D
:100BD000FFF7D8FD1C208DF8040001208DF80700D8
:100BE00002208DF8050001208DF8060001A8FFF70E
:100BF00091FD01218807FFF743FF01211020FFF736
:100C0000DDFD10208DF803004002ADF80000032048
:100C10008DF8020069460548FFF7BEFA4FF400510F
:100C20000248FFF744FB05B000BD00000010014082
:100C300000BFFEE702E008C8121F08C1002AFAD16F
:100C400070477047002001E001C1121F002AFBD14C
:100C50007047FFF793FF4FF6FF70FFF797FB0024F5
:100C600005E0A1B20022B420FFF756FB641C3C2C27
:100C7000F7DB00BFFEE70000980C00080000002032
:100C800008000000340C0008A00C00080800002038
:100C900010040000440C000800000000FFFF0000EA
:04000005080000ED02
:00000001FF
