:020000040800F2
:10000000B04900209D01000841040008DB030008FE
:100010003D040008E5010008670C0008000000002E
:1000200000000000000000000000000005010008C2
:10003000E90100080000000049010008B9070008B4
:10004000B7010008B7010008B7010008B7010008B0
:10005000B7010008B7010008B7010008B7010008A0
:10006000B7010008B7010008B7010008B701000890
:10007000B7010008B7010008B7010008B701000880
:10008000B7010008B7010008B7010008B701000870
:10009000B7010008B7010008B7010008B701000860
:1000A000B7010008B7010008B7010008B701000850
:1000B0004D080008B7010008B7010008B7010008A3
:1000C000B7010008B7010008B7010008B701000830
:1000D000B7010008ED090008B7010008B7010008E2
:1000E000B7010008B7010008B7010008DFF810D019
:1000F00000F066F800480047890C0008AFF3008064
:10010000B0490020224B19680868B0E8F00F80F36E
:100110000988BFF36F8F4FF0000080F311884EF015
:100120000D0E70470000000006480068006880F36C
:10013000088862B661B6BFF34F8FBFF36F8F00DFE1
:1001400000BF00BF08ED00E0EFF30980BFF36F8F41
:100150000F4B1A6820E9F00F106008B54FF0BF0090
:1001600080F31188BFF34F8FBFF36F8F01F0B0F9A9
:100170004FF0000080F31188BDE808401968086856
:10018000B0E8F00F80F30988BFF36F8F704700BFAE
:1001900044000020EFF305807047000006488047C8
:1001A00006480047FEE7FEE7FEE7FEE7FEE7FEE75C
:1001B000FEE7FEE7FEE7FEE7ED070008ED000008BA
:1001C000064C074D06E0E06840F0010394E80700A4
:1001D00098471034AC42F6D3FFF78CFFC8170008DD
:1001E000E817000800BFFEE7704709E000F002F9D9
:1001F000642001F0B3F800F0F3F8642001F0AEF8E9
:10020000F4E700000AE001F059F805A000F052FA06
:1002100001F066F84FF4FA6001F0A0F8F3E700008F
:1002200068656C6C6F20776F726C640A0000000068
:100230002EE001F043F817A000F03CFA01F050F86E
:10024000164801780078401C144A10700A2914D10D
:1002500001F034F812A000F02DFA01F041F8134833
:10026000006801F095F801F029F811A000F022FAD9
:1002700001F036F8002001F08BF8084800780C28CF
:1002800002D10B20054908704FF4FA7001F066F8AE
:10029000CFE7000074657374310A00002400002069
:1002A000C9BEB3FDC8CECEF1310A0000180000204F
:1002B000C9BEB3FDC8CECEF1330A00002DE9F0412E
:1002C000024600250026002000230024002791F884
:1002D00003C00CF00F0591F803C00CF0100CBCF13A
:1002E000000F03D091F802C04CEA050591F800C058
:1002F000BCF1000F31D0146800202BE04FF0010C4E
:100300000CFA00F3B1F800C00CEA03069E4220D1BB
:1003100083004FF00F0C0CFA03F7BC4305FA03FC03
:100320004CEA040491F803C0BCF1280F06D14FF049
:10033000010C0CFA00FCC2F814C00AE091F803C0EA
:10034000BCF1480F05D14FF0010C0CFA00FCC2F8CB
:1003500010C0401C0828D1D31460B1F800C0BCF113
:10036000FF0F34DD546800202EE000F1080C4FF040
:10037000010808FA0CF3B1F800C00CEA03069E422B
:1003800021D183004FF00F0C0CFA03F7BC4305FAA0
:1003900003FC4CEA040491F803C0BCF1280F05D11A
:1003A00000F1080C08FA0CF8C2F8148091F803C0A8
:1003B000BCF1480F07D100F1080C4FF0010808FA12
:1003C0000CF8C2F81080401C0828CED35460BDE859
:1003D000F081416170470161704700BFFEE7000096
:1003E00010B54FF400510248FFF7F5FF10BD0000B3
:1003F0000010014010B54FF400510248FFF7E9FF2B
:1004000010BD00000010014008B50121102000F0CF
:100410006BF810208DF803004002ADF800000320B7
:100420008DF8020069460448FFF748FF4FF4005179
:100430000148FFF7CEFF08BD0010014000BFFEE7F6
:100440007047000070B5002100230F22C47804B368
:10045000154C246804F4E064C4F5E064210AC1F199
:100460000403CA40447804FA03F184781440214319
:1004700009010E4C0678A155047804F01F050124EB
:10048000AC4005786D11AD0005F1E025C5F80041DF
:1004900009E0047804F01F050124AC40044D0678FF
:1004A000761145F8264070BD0CED00E000E400E058
:1004B00080E100E002490143024A116070470000F8
:1004C0000000FA050CED00E029B1064AD2690243AA
:1004D000044BDA6104E0034AD2698243014BDA61DA
:1004E000704700000010024029B1064A9269024399
:1004F000044B9A6104E0034A92698243014B9A617A
:10050000704700000010024030B500210022002496
:1005100000232D4D6D6805F00C0121B1042905D093
:10052000082923D105E0294D056022E0274D05600B
:100530001FE0254D6D6805F47012234D6D6805F4BC
:100540008034022505EB92421CB9214D55430560CC
:100550000BE01D4D6D6805F400351DB11C4D554374
:10056000056002E0194D5543056002E0174D056036
:1005700000BF00BF144D6D6805F0F0010909154D6D
:100580006B5C0568DD4045600F4D6D6805F4E0610A
:10059000090A104D6B5C4568DD4085600A4D6D6849
:1005A00005F46051C90A0B4D6B5C4568DD40C560C0
:1005B000054D6D6805F44041890B074D6B5CC568BE
:1005C000B5FBF3F5056130BD0010024000127A0062
:1005D00000093D00000000201000002000B587B099
:1005E00001218803FFF780FF01210420FFF77CFF32
:1005F00018208DF81B004FF40070ADF81800032090
:100600008DF81A0006A92148FFF758FE48208DF8FA
:100610001B004FF48060ADF8180003208DF81A001D
:1006200006A91A48FFF74AFE4FF416500290002020
:10063000ADF814000C20ADF812000020ADF8100049
:10064000ADF80E00ADF80C0002A9114800F096FAC2
:10065000012240F225510E4800F06AFA4FF4A060E2
:10066000FFF728FF25208DF8040001208DF80700F2
:100670008DF805008DF8060001A8FFF7E3FE0121C3
:10068000034800F012FA07B000BD00000008014066
:100690000038014010B504462146054800F0DFFA55
:1006A00000BF8021024800F00CFA0028F9D010BDEC
:1006B0000038014070B50446002504E0605DFFF796
:1006C000E9FF681CC5B2605D0028F7D170BD10B5A8
:1006D00000F002F810BD00000CB500200190009061
:1006E0003348006840F480303149086000BF30482A
:1006F000006800F4003000900198401C01900098C0
:1007000018B90198B0F5A06FF1D12948006800F43C
:10071000003010B10120009001E00020009000980E
:10072000012843D12348006840F0100021490860A7
:100730000846006820F0030008600846006840F0A2
:10074000020008601A484068194948600846406835
:1007500048600846406840F4806048600846406849
:1007600020F47C1048600846406840F4E810486077
:100770000846006840F08070086000BF0C480068C0
:1007800000F000700028F9D00948406820F003000C
:10079000074948600846406840F00200486000BFD2
:1007A0000348406800F00C000828F9D10CBD000097
:1007B000001002400020024010B500BFBF2080F3AF
:1007C0001188BFF34F8FBFF36F8F00BF00F0FAFEA9
:1007D00018B14FF080500449086000BF002080F33A
:1007E000118800BF10BD000004ED00E010B51348F3
:1007F000006840F00100114908600846406810494F
:1008000008400E494860084600680E4908400B49F8
:1008100008600846006820F48020086008464068A8
:1008200020F4FE0048604FF41F008860FFF74FFF80
:100830004FF000600449086010BD00000010024045
:100840000000FFF8FFFFF6FE08ED00E010B5012103
:10085000880700F019F8012803D10121800700F072
:1008600004F810BDCA4302827047CA43028270472F
:1008700021B1028842F00102028004E002884FF6B2
:10088000FE731A400280704730B5024600200023F4
:100890000024158A05EA0103958905EA010413B1CC
:1008A0000CB1012000E0002030BD1AB183890B4358
:1008B000838102E083898B438381704701894FF6EE
:1008C000F872114001817047002202881D4B984246
:1008D0000ED01D4B98420BD0B0F1804F08D01B4B6F
:1008E000984205D01A4B984202D01A4B984204D134
:1008F0004FF68F731A404B881A43174B984207D014
:10090000164B984204D04FF6FF431A40CB881A4347
:1009100002808B8883850B8803850A4B98420BD015
:10092000094B984208D00E4B984205D00D4B984287
:1009300002D00D4B984201D10B7A038601238382AA
:1009400070470000002C01400034014000040040CA
:1009500000080040000C004000100040001400405F
:100960000040014000440140004801401FB5012102
:100970000846FFF7A9FD4FF08040FFF79FFF0020DA
:10098000ADF80A00ADF8060042F20F70ADF80800AD
:1009900041F61F40ADF8040000208DF80C0001A9BD
:1009A0004FF08040FFF790FF01218807FFF75AFFC3
:1009B000012211469007FFF778FF4FF4A060FFF780
:1009C00079FD1C208DF8000001208DF80300022025
:1009D0008DF8010001208DF802006846FFF732FD16
:1009E00001218807FFF744FF1FBD000010B540F24A
:1009F0002551214800F072F801283CD11E4800F032
:100A000029F9C4B21D48007858B9402C2DD11C4892
:100A1000007850BB0120194908700020194908705E
:100A200023E01648007801280FD10D2C03D10220B5
:100A30001249087019E014481249097844541148C1
:100A40000078401C0F4908700FE00C48007802281D
:100A50000BD10A2C09D10020084908700A49094A1B
:100A60001278885401200649087040F22551024846
:100A700000F00CF800BF10BD003801401500002048
:100A800014000020160000208000002010B5002275
:100A9000002340F66A14A14200D100BF0A120124CB
:100AA0009440A3B2DC43048010BD21B1828942F49A
:100AB0000052828104E082894DF6FF731A408281E0
:100AC000704702460020B1F5007F00D100BF1388B7
:100AD0000B400BB1012000E00020704770B50246CA
:100AE000002400230025002040F66A16B14200D100
:100AF00000BFC1F3421501F01F03012606FA03F3FC
:100B0000012D02D19689334006E0022D02D1168ACA
:100B1000334001E0968A33400C12012606FA04F4B1
:100B20001688344013B10CB1012000E0002070BDE4
:100B3000F0B50346002400260025002040F66A1781
:100B4000B94200D100BF1846C1F3421401F01F069C
:100B5000012707FA06F5012C01D10C3004E0022C24
:100B600001D1103000E014301AB107682F4307603C
:100B700002E00768AF430760F0BD00002DE9F047D1
:100B800086B005460E460024A24600BFA1460027B7
:100B9000B08900B100BF2F462C8A4CF6FF7004408C
:100BA000F08804432C82AC894EF6F3100440B088E0
:100BB00031890843718908430443AC81AC8A4FF6FC
:100BC000FF400440B0890443AC8201A8FFF79CFCBD
:100BD0001F48874202D1DDF810A001E0DDF80CA02B
:100BE000A88900F4004040B10AEBCA0000EB0A10EB
:100BF00031684900B0FBF1F807E00AEBCA0000EBEE
:100C00000A1031688900B0FBF1F86420B8FBF0F0FD
:100C100004012009642101FB1089A88900F4004027
:100C200040B1322000EBC900B0FBF1F000F007004A
:100C3000044308E0322000EB09106421B0FBF1F01E
:100C400000F00F0004432C8106B0BDE8F0870000DF
:100C50000038014001468888C0F308007047C1F39E
:100C600008028280704700BFFEE702E008C8121F3A
:100C700008C1002AFAD170477047002001E001C185
:100C8000121F002AFBD170470EB5FFF76FFEFFF76A
:100C9000BBFBFFF7A3FC01210820FFF725FC102078
:100CA0008DF80B000220ADF8080003208DF80A0033
:100CB00002A91248FFF702FB1148012100230A464E
:100CC000CDE900100FA1114800F04CFC10480121A3
:100CD00000238022CDE900100EA1104800F042FC54
:100CE0000F48012100234A02CDE900100DA10F4851
:100CF00000F038FC00F0B2FB00200EBD000C0140FB
:100D00001800002046756E3100000000EB0100085D
:100D10001C00002046756E3200000000050200082D
:100D20002000002046756E330000000031020008EC
:100D30002DE9F04105460E461C4807681C4800682E
:100D4000001D00F071FA50B91948006890F82C1095
:100D50000120884017490968814316480160681CD2
:100D600038B936B112480168091D134800F09AFAE3
:100D70001AE07C190E4800684460BC4207D20C4857
:100D80000168091D0D48006800F072FA0CE008487F
:100D90000168091D0A48006800F06AFA09480068FD
:100DA000844201D207480460BDE8F0815800002069
:100DB000440000205C000020984500204C000020EA
:100DC000480000207400002010B5044600F076FAB8
:100DD00023480068401C224908602248006840B946
:100DE000204804600846006801280DD100F014F97D
:100DF0000AE01D48006838B91A480068C06AE16A0C
:100E0000884201D81748046018480068401C1749F8
:100E1000086094F82C10012088401549096808439F
:100E200013490860E16A01EB8101124A02EB81007B
:100E3000211D00F037FA00F053FA0B48006868B142
:100E400008480068C06AE16A884207D24FF08050C3
:100E500009490860BFF34F8FBFF36F8F10BD0000CB
:100E6000540000204400002060000020700000209A
:100E70005C000020E444002004ED00E070B523E0B5
:100E800000F01EFB1348006808B9012000E00020B4
:100E9000054600F025FCBDB900F010FA0D48C06809
:100EA000C468201D00F0C0F90B480068401E0A49C4
:100EB00008600A480068401E0849086000F010FAFF
:100EC000204600F00DF800BF044800680028D7D184
:100ED00070BD000084450020540000205000002018
:100EE00010B50446206B00F00BFA204600F008FA1B
:100EF00010BD000030B54FF48843174800F00704D8
:100F00002CB1C01D20F00700134C041B1B1B024614
:100F1000124C22600024114D6C60D018083820F06B
:100F200007000F4C206000240D4D2D686C600C4DA7
:100F30002D682C601146441A4C60094C24680C60E2
:100F4000084D4C682C60084D4C682C604FF00044F4
:100F5000064D2C6030BD0000E40000202C00002075
:100F6000340000203C000020380000204000002019
:100F700000BFFFF783FF064800680128F9D94FF04A
:100F8000805004490860BFF34F8FBFF36F8FF0E7C5
:100F9000E444002004ED00E02DE9FF5F80460E46AA
:100FA0009146DDE90E7A109CA9F10100216B01EB5D
:100FB000800B2BF0070B002507E0715D04F1340076
:100FC0004155705D00B902E06D1C102DF5D300BFD6
:100FD000002143200155052F00D30427E762201D7F
:100FE00000F043F904F1180000F03FF92461C7F163
:100FF0000500A06164620020606484F848004146F6
:101000005846039A00F0FEF82060BAF1000F01D0B4
:10101000CAF80040BDE8FF9F10B5002407E004EBCC
:1010200084010F4A02EB810000F012F9641C052CC8
:10103000F5D30C4800F00CF90B4800F009F90B4807
:1010400000F006F90A4800F003F90A4800F000F938
:1010500004480949086004480849086010BD0000B8
:10106000E4440020484500205C45002070450020F5
:101070008445002098450020480000204C000020B6
:1010800010B50146164800E0006803688B42FBD3A8
:101090000246436813448B4204D143684C6823449E
:1010A000436001460A464B6813440468A34211D1C9
:1010B0000C4C03682468A34208D04B680468646839
:1010C00023444B6003681B680B6005E0054B1B68FD
:1010D0000B6001E003680B60884200D0016010BD26
:1010E0002C000020340000200A490968096809B969
:1010F000012100E0002121B14FF0FF31064A1160CB
:1011000006E004490968C968C868034A4168116073
:1011100070470000480000207400002000BFBF207E
:1011200080F31188BFF34F8FBFF36F8F00BF00BFF5
:10113000FEE700002DE9F04105464FF0000800F001
:10114000BFF92B48006808B9FFF7D4FE29480068AA
:101150002840002847D145B1083505F0070020B1E7
:1011600005F00700C0F108000544002D3BD02248DF
:101170000068854237D8214E3046046801E0264693
:1011800024686068A84202D220680028F7D1184875
:101190000068844227D0306800F108082068306079
:1011A0006068401B102807D967196068401B786089
:1011B00065603846FFF764FF0F4960680968081AE0
:1011C0000D490860084600680D490968884203D245
:1011D000094800680A4908600649606809680843C8
:1011E00060600020206000F07BFA4046BDE8F0819E
:1011F0003400002040000020380000202C00002097
:101200003C000020001F4FF080730360001F21F09E
:1012100001030360001F034B036014380260203891
:10122000704700001D11000801460A69D1E901302C
:101230009860D1E9010358605068884201D18868FC
:101240005060002008611068401E106010687047F0
:1012500000F1080141604FF0FF31816000F10801A9
:10126000C160016100210160704700210161704788
:1012700010B502460B685C1C0CB9106907E002F15E
:10128000080000E04068446824689C42FAD9446839
:101290004C604C68A160886041600A611468641CFD
:1012A000146010BD42684A6093688B60936859600F
:1012B0009160086103685B1C0360704700BFBF203A
:1012C00080F31188BFF34F8FBFF36F8F00BF0348C8
:1012D0000068401C01490860704700002800002099
:1012E00006480068401E054908600846006820B9A5
:1012F000002080F3118800BF00BF70472800002045
:1013000070B506463546D6B1083D2C460C49606896
:101310000968084098B1206888B909496068096877
:101320008843606000F0CCF80649606809680844AA
:10133000044908602046FFF7A3FE00F0D1F970BD14
:10134000400000203800002003484FF0E0214861B1
:1013500007200861704700003F19010070B504467E
:10136000002544B100F0ACF800212046FFF7E0FC76
:1013700000F0B6F905463DB94FF0805003490860CA
:10138000BFF34F8FBFF36F8F70BD000004ED00E01F
:1013900070B50546FFF792FF15B92748006800E0D1
:1013A00028460446201DFFF73FFF78B9E06A00EBAE
:1013B0008000224951F8200040B994F82C100120F7
:1013C00088401F49096881431D480160A06A18B11F
:1013D00004F11800FFF728FF1A480068401C19495B
:1013E000086015480068844209D1211D1648FFF79E
:1013F00059FF16480068401C1449086009E0144869
:101400000068401E124908602046FFF769FDFFF79B
:101410006BFEFFF765FF0F48006858B1064800688B
:10142000844207D14FF080500B490860BFF34F8FC3
:10143000BFF36F8F70BD000044000020E444002023
:101440005C00002070000020844500205000002037
:10145000540000206000002004ED00E01CB511489D
:1014600000210B468022CDE900100FA1104800F0AA
:1014700079F80446012C14D100BFBF2080F31188F5
:10148000BFF34F8FBFF36F8F00BF4FF0FF3009499D
:10149000086001200849086000200849086000F041
:1014A00047F81CBD7800002049444C45000000006E
:1014B000710F000874000020600000205800002018
:1014C00002480068401C0149086070477C00002009
:1014D0001248006818B10120114908601DE0002081
:1014E0000F4908600F480068B0FA80F0C0F11F0192
:1014F00001EB81020C4B03EB8200426852684260B0
:1015000000F108024368934202D142685268426087
:101510004268D268054B1A6000BF70477C0000200B
:10152000680000205C000020E4440020440000200B
:1015300010B50A48006840F47F0008490860084672
:10154000006840F07F400860FFF7FEFE002004497D
:101550000860FEF7E9FD002010BD000020ED00E06E
:10156000280000202DE9FF4F85B0804689461746A8
:10157000DDE912ABB800FFF7DDFD064656B14C20A1
:10158000FFF7D8FD04460CB1266304E03046FFF7B0
:10159000B7FE00E000247CB10020CDE900ABCDE92E
:1015A00002403A4649464046089BFFF7F5FC204674
:1015B000FFF70AFC012501E04FF0FF35284609B08E
:1015C000BDE8F08F2DE9F04100273A480068002877
:1015D00063D139480068451C374805608DB93748E4
:1015E000D0F8008036480068344908603448C0F8B4
:1015F000008034480068401C32490860FFF774FDE1
:1016000000BF3148006885423BD300BF2B480068CB
:10161000006808B9012000E0002020B14FF0FF3041
:10162000294908602CE025480068C068C4686668DD
:10163000B54202D22448066022E0201DFFF7F4FDE7
:10164000A06A18B104F11800FFF7EEFD94F82C1011
:10165000012088401D49096808431C490860E16A67
:1016600001EB81011A4A02EB8100211DFFF71AFEEE
:101670001849E06A0968C96A8842C7D30127C5E7E3
:1016800000BF14480068C06A00EB8000104951F8A0
:101690002000012800D9012704E00F480068401C01
:1016A0000D4908600D48006800B101273846BDE8C3
:1016B000F08100007C00002058000020480000203D
:1016C0004C0000206C000020740000205C00002012
:1016D000E444002044000020640000206800002052
:1016E00070B500240026FFF7E9FD2E480068401E73
:1016F0002C4908600846006800284FD12A48006835
:1017000000284BD024E02948C068C46804F11800C0
:10171000FFF78AFD201DFFF787FD94F82C100120AC
:10172000884023490968084321490860E16A01EBC0
:101730008101204A02EB8100211DFFF7B3FD1E4904
:10174000E06A0968C96A884202D301201B4908601F
:101750001648006808B9012000E000200028D2D017
:101760000CB1FFF7C1FC1648056865B100BFFFF773
:1017700029FF10B10120114908606D1E002DF6D11E
:1017800000200F4908600D48006838B10126300775
:101790000C490860BFF34F8FBFF36F8FFFF7A0FDB9
:1017A000304670BD7C0000205400002070450020B1
:1017B0005C000020E4440020440000206800002079
:1017C0006400002004ED00E0E8170008000000209D
:1017D000800000006A0C00086818000880000020E3
:1017E000304900007A0C00080000000001020304E8
:1017F00001020304060708090204060800000000AD
:1018000000000000000000000000000000000000D8
:10181000AAAAAAAA00000000000000000000000020
:1018200000000000000000000000000000000000B8
:1018300000000000000000000000000000000000A8
:101840000000000000000000000000000000000098
:101850000000000000000000000000000000000088
:08186000000000000000000080
:04000005080000ED02
:00000001FF
